:1000000024EF02F0FFFFFFFF4BEF00F000000000C5
:100010001200FFFFFFFFFFFF01C03BF000C03AF0FE
:10002000E8CF1EF0D8CF1FF0E0CF20F0E9CF1AF0D4
:10003000EACF1BF0E1CF1CF0E2CF1DF0F0A00AD018
:10004000010E8214016E0150000A03E182802AEF42
:1000500000F08290F0A20AD0016A82B2012A015017
:10006000010A03E1829236EF00F08282180EF06EF0
:100070001EC0E8FF1FC0D8FF20C0E0FF1AC0E9FF84
:100080001BC0EAFF1CC0E1FF1DC0E2FF3BC001F046
:100090003AC000F0100001C039F000C038F0E9CFDC
:1000A0001AF0EACF1BF0E1CF1CF0E2CF1DF0016A9D
:1000B00082B4012A0150000A03E1828461EF00F05A
:1000C0008294D00EF26E1AC0E9FF1BC0EAFF1CC07A
:1000D000E1FF1DC0E2FF39C001F038C000F011009F
:1000E0000F0E0B6EFF0E0A6E0B2E01D003D00A2EE0
:1000F000FED7FAD73E0E0A6E0A2EFED71200210E48
:100100000A6E0A2EFED7120015C0E9FF16C0EAFFDC
:1001100017C0E1FF18C0E2FFEF6A375200E037BEB8
:10012000EF8E37BCEF8C37BAEF8A37B8EF8837B627
:10013000EF8637B4EF8437B2EF8237B0EF801950D3
:10014000010A03E1E794A6EF00F0E784E78206ECFA
:1001500000F0E7921950010A03E170EC00F002D0C0
:100160007FEC00F01200FF0E836EFF0E956E936A17
:10017000FF0E816E336A8190030E0B6EFF0E0A6EC6
:100180000B2E01D003D00A2EFED7FAD7960E0A6E98
:100190000A2EFED783CF32F0010E3214016E0150C9
:1001A000000A03E13C0E336E1AD0016A32B2012A12
:1001B0000150000A03E1370E336E11D0016A32B4E8
:1001C000012A0150000A03E1340E336E08D0016A9F
:1001D00032B6012A0150000A02E1310E336E8180ED
:1001E0008192030E0B6EFF0E0A6E0B2E01D003D010
:1001F0000A2EFED7FAD7960E0A6E0A2EFED783CFA6
:1002000032F0010E3214016E0150000A03E1300E8B
:10021000336E1AD0016A32B2012A0150000A03E19A
:10022000380E336E11D0016A32B4012A0150000A2F
:1002300003E1350E336E08D0016A32B6012A01504F
:10024000000A02E1320E336E81828194030E0B6E3E
:10025000FF0E0A6E0B2E01D003D00A2EFED7FAD75E
:10026000960E0A6E0A2EFED783CF32F0010E32149C
:10027000016E0150000A03E13E0E336E1AD0016A8E
:1002800032B2012A0150000A03E1390E336E11D057
:10029000016A32B4012A0150000A03E1360E336EBE
:1002A00008D0016A32B6012A0150000A02E1330E79
:1002B000336E81843350000AD8B45DD733C000F068
:1002C00012000FD0800E326E19D0C00E326E16D0D2
:1002D000940E326E13D0D40E326E10D0800E326E69
:1002E0000DD03250010AEEE03250020AEEE03250F8
:1002F000030AEEE03250040AEEE0F0D73304006E59
:100300003250002600C032F0010E196E00C037F0E6
:1003100084EC00F0196A366A36503424E96E000E17
:100320003520EA6EEECF00F000520CE03650342457
:10033000E96E000E3520EA6EEECF37F084EC00F067
:10034000362AEAD7010E196E12000FD0800E326ED7
:1003500019D0C00E326E16D0940E326E13D0D40E59
:10036000326E10D0800E326E0DD03250010AEEE0A7
:100370003250020AEEE03250030AEEE03250040A34
:10038000EEE0F0D73304006E3250002600C032F0A9
:10039000010E196E00C037F084EC00F0196A34C009
:1003A00037F084EC00F0010E196E120070EC00F0D2
:1003B00070EC00F070EC00F034C015F035C016F0B1
:1003C00032C017F033C018F032C0E9FF33C0EAFF83
:1003D000EF9034C0E1FF35C0E2FFE66A110EE12480
:1003E000006E00C0E1FFE76A120E005CE16E120EC3
:1003F000E926EF92EF94EF90120EE95EEF94EF9200
:10040000EF90300E376E84EC00F0300E376E84ECD7
:1004100000F0300E376E84EC00F0380E376E84EC4E
:1004200000F0080E376E84EC00F0010E376E84EC9D
:1004300000F0060E376E84EC00F00C0E376E84EC84
:1004400000F0010E196E1200350E256E6F0E266E2D
:10045000200E276E450E286E720E296E770E2A6EBC
:10046000740E2B6E690E2C6E6D0E2D6E610E2E6E3F
:100470002F6A410E306E000E316EB3EC00F00F0E9D
:10048000936E946A82828290D00EF26E180EF06E95
:10049000800ED06E840E326E0F0E336E830E346E6D
:1004A0000F0E356ED6EC01F00C0E376E84EC00F0BA
:1004B000010E376E84EC00F0010E326E010E336EC9
:1004C000250E346E000E356E61EC01F0020E326EB8
:1004D000050E336E30C034F0A5EC01F0304A312AFD
:1004E000800E006E800E3118005C02E130505A0818
:1004F00004E2410E306E000E316EE8D7FFD7FFFFE9
:020000040030CA
:0E000000FFFAFFFEFFFFFBFFFFFFFFFFFFFF0A
:00000001FF
