:1000000094EF02F0FFFFFFFF0000000012000F0E50
:100010000B6EFF0E0A6E0B2E01D003D00A2EFED7F8
:10002000FAD73E0E0A6E0A2EFED71200210E0A6E75
:100030000A2EFED7120015C0E9FF16C0EAFF17C04E
:10004000E1FF18C0E2FFEF6A4E5200E04EBEEF8EB5
:100050004EBCEF8C4EBAEF8A4EB8EF884EB6EF86A4
:100060004EB4EF844EB2EF824EB0EF801950010AC9
:1000700003E1E7943DEF00F0E784E78204EC00F051
:10008000E7921950010A03E107EC00F002D016ECE8
:1000900000F01200090E1A5CE16E0F0EE26EE79896
:1000A000E79612000FD0800E496E19D0C00E496E2F
:1000B00016D0940E496E13D0D40E496E10D0800E17
:1000C000496E0DD04950010AEEE04950020AEEE0B7
:1000D0004950030AEEE04950040AEEE0F0D74A0422
:1000E000006E4950002600C049F0010E196E00C094
:1000F0004EF01BEC00F0196A4D6A4D504B24E96E2E
:10010000000E4C20EA6EEECF00F000520CE04D5095
:100110004B24E96E000E4C20EA6EEECF4EF01BEC45
:1001200000F04D2AEAD7010E196E1200FF0E836E01
:10013000FF0E956E936AFF0E816E4A6A8190030EE0
:100140000B6EFF0E0A6E0B2E01D003D00A2EFED7C7
:10015000FAD7960E0A6E0A2EFED783CF49F0010E0B
:100160004914016E0150000A03E13C0E4A6E1AD098
:10017000016A49B2012A0150000A03E1370E4A6EB2
:1001800011D0016A49B4012A0150000A03E1340E7A
:100190004A6E08D0016A49B6012A0150000A02E1FC
:1001A000310E4A6E81808192030E0B6EFF0E0A6E35
:1001B0000B2E01D003D00A2EFED7FAD7960E0A6E68
:1001C0000A2EFED783CF49F0010E4914016E01506B
:1001D000000A03E1300E4A6E1AD0016A49B2012AC0
:1001E0000150000A03E1380E4A6E11D0016A49B489
:1001F000012A0150000A03E1350E4A6E08D0016A57
:1002000049B6012A0150000A02E1320E4A6E81828B
:100210008194030E0B6EFF0E0A6E0B2E01D003D0DD
:100220000A2EFED7FAD7960E0A6E0A2EFED783CF75
:1002300049F0010E4914016E0150000A03E13E0E1F
:100240004A6E1AD0016A49B2012A0150000A03E13C
:10025000390E4A6E11D0016A49B4012A0150000AD0
:1002600003E1360E4A6E08D0016A49B6012A0150F0
:10027000000A02E1330E4A6E81844A50000AD8B463
:100280005DD74AC000F012001AC0E9FF0F0EEA6EF7
:10029000EF8804EC00F0EF8604EC00F04AEC00F08C
:1002A000EF9804EC00F04AEC00F0EF961200010E1B
:1002B0004B6E080E4A6E1AC0E9FF0F0EEA6E4A52E4
:1002C00022E004EC00F004EC00F04AEC00F0EF96C1
:1002D00004EC00F0495200E04AEC00F04936D8A0A6
:1002E00075EF01F0EF8876EF01F0EF98000004EC75
:1002F00000F0EF86120EE95EEFA67CEF01F0120E21
:10030000E9264A06DCD74B6A04EC00F04AEC00F020
:100310000000EF9604EC00F0EF8804EC00F004EC31
:1003200000F04B5200E0EF86120EE95EEFA696EF6A
:1003300001F04B6A04EC00F0EFB84B8004EC00F0E5
:1003400004EC00F004EC00F004EC00F004EC00F02D
:1003500004EC00F004EC00F004EC00F04AEC00F0D7
:10036000120EE926EF96EF984BC000F012001AC06B
:10037000E9FF0F0EEA6E4AEC00F0EF9804EC00F093
:10038000EF86120EE95EEFA6C3EF01F0120EE9262A
:1003900004EC00F004EC00F004EC00F004EC00F0DD
:1003A000EF8804EC00F012004A6A080E4B6E1AC087
:1003B000E9FF0F0EEA6E4B521CE004EC00F0000067
:1003C000EF8804EC00F04A5200E0EF86120EE95E7E
:1003D000EFA6E8EF01F0EFB8D880EFA8D8904A3642
:1003E00004EC00F04AEC00F0120EE926EF964B0602
:1003F000E2D7EF8804EC00F0495202E04AEC00F04A
:100400004950D8B405EF02F0EF98000004EC00F07A
:10041000EF86120EE95EEFA60BEF02F0120EE92650
:1004200004EC00F04AEC00F0EF9604EC00F04AEC2B
:1004300000F0EF984AC000F01200016AACB2012A45
:100440000150000A02E10000F8D749C0ADFF1200D8
:1004500007EC00F007EC00F007EC00F04BC015F0E3
:100460004CC016F049C017F04AC018F049C0E9FF67
:100470004AC0EAFFEF904BC0E1FF4CC0E2FFE66AE2
:10048000110EE124006E00C0E1FFE76A120E005C6D
:10049000E16E120EE926EF92EF94EF90120EE95EF4
:1004A000EF94EF92EF90300E4E6E1BEC00F0300E9A
:1004B0004E6E1BEC00F0300E4E6E1BEC00F0380E52
:1004C0004E6E1BEC00F0080E4E6E1BEC00F0010EA1
:1004D0004E6E1BEC00F0060E4E6E1BEC00F00C0E88
:1004E0004E6E1BEC00F0010E196E120049C0E9FFC0
:1004F0004AC0EAFF120E4924006E00C01AF000C084
:10050000E9FFEF88EF86120EE95EEFA685EF02F0B5
:100510001200AC8A900EAB6E948E949C9EAA03D06F
:10052000AECF4DF0FBD71200500E266E610E276E37
:10053000740E286E690E296E730E2A6E740E2B6E61
:10054000650E2C6E200E2D6E740E2E6E6F0E2F6E9D
:10055000200E306E340E316E200E326E336A470E2E
:10056000346E690E356E610E366E200E376E6E0E6D
:10057000386E610E396E200E3A6E780E3B6E650E47
:100580003C6E6B0E3D6E690E3E6E6E0E3F6E690EDA
:10059000406E730E416E650E426E690E436E446A84
:1005A000840E496E0F0E4A6E830E4B6E0F0E4C6E0C
:1005B00028EC02F00C0E4E6E1BEC00F0010E4E6E9D
:1005C0001BEC00F0260E456E000E466E340E476E94
:1005D000000E486E010E496E010E4A6E45C04BF08A
:1005E00046C04CF052EC00F0020E496E010E4A6E0D
:1005F00047C04BF048C04CF052EC00F096EC00F0D5
:10060000820E496E0F0E4A6E76EC02F044EC01F059
:10061000A20E496E57EC01F0020E496E57EC01F044
:10062000530E496E57EC01F0500E496E57EC01F035
:10063000410E496E57EC01F0540E496E57EC01F033
:10064000480E496E57EC01F0490E496E57EC01F027
:10065000530E496E57EC01F04A0E496E57EC01F00B
:10066000490E496E57EC01F04D0E496E57EC01F002
:10067000B7EC01F0820E496E0F0E4A6E76EC02F076
:1006800044EC01F0A20E496E57EC01F0020E496EE7
:1006900057EC01F044EC01F0A30E496E57EC01F069
:1006A000010E496ED4EC01F000C01BF0010E496E42
:1006B000D4EC01F000C01CF0010E496ED4EC01F046
:1006C00000C01DF0010E496ED4EC01F000C01EF018
:1006D000010E496ED4EC01F000C01FF0010E496E0E
:1006E000D4EC01F000C020F0010E496ED4EC01F012
:1006F00000C021F0010E496ED4EC01F000C022F0E0
:10070000010E496ED4EC01F000C023F0496AD4EC2C
:1007100001F000C024F0B7EC01F0330EAF6EAC84F2
:1007200089EC02F01BC049F01DEC02F01CC049F03E
:100730001DEC02F01DC049F01DEC02F01EC049F096
:100740001DEC02F01FC049F01DEC02F020C049F082
:100750001DEC02F021C049F01DEC02F0200E496EA4
:100760001DEC02F022C049F01DEC02F023C049F05C
:100770001DEC02F024C049F01DEC02F0FFD7FFFF92
:020000040030CA
:0E000000FFFAFFFEFFFFFBFFFFFFFFFFFFFF0A
:00000001FF
