:10000000CDEF06F0FFFFFFFF0000000012000F0E13
:100010000B6EFF0E0A6E0B2E01D003D00A2EFED7F8
:10002000FAD73E0E0A6E0A2EFED71200210E0A6E75
:100030000A2EFED71200090E155CE16E0F0EE26E5D
:10004000E798E796120016C0E9FF17C0EAFF18C04C
:10005000E1FF19C0E2FFEF6A415200E041BEEF8EBE
:1000600041BCEF8C41BAEF8A41B8EF8841B6EF86C8
:1000700041B4EF8441B2EF8241B0EF801A50010ADF
:1000800003E1E79445EF00F0E784E78204EC00F039
:10009000E7921A50010A03E107EC00F002D016ECD7
:1000A00000F012000001220E0C6E086A096A0A6A4A
:1000B0000B6A0C06D8B47FEF00F0D8900B320A32EE
:1000C000093208320332023201320032D8A059EF2D
:1000D00000F00C06D8B477EF00F004500826055065
:1000E000092206500A2207500B225EEF00F004504E
:1000F00008260550092206500A2207500B2212003A
:100100000E0E0A6E0A2EFED7000012000001086AC9
:10011000096A100E0C6E0134083609360450085E68
:100120000550D8A0053C095ED8B09EEF00F0045001
:1001300008260550D8B0053C0926D890003601366F
:100140000C2E8BEF00F01200000100500402F4CFDF
:1001500009F0F3CF08F001500502F4CF0BF0F3CF14
:100160000AF000500502F3500926F4500A22E86A0A
:100170000B2201500402F3500926F4500A22E86AC7
:100180000B2205AEC8EF00F000500A5C01500B587E
:1001900001AECFEF00F004500A5C05500B5808C0C8
:1001A00000F009C001F00AC002F00BC003F0120019
:1001B00015C0E9FF0F0EEA6EEF8804EC00F0EF8641
:1001C00004EC00F01BEC00F0EF9804EC00F01BECEA
:1001D00000F0EF961200010E3D6E080E3C6E15C049
:1001E000E9FF0F0EEA6E3C5222E004EC00F004EC52
:1001F00000F01BEC00F0EF9604EC00F03B5200E046
:100200001BEC00F03B36D8A009EF01F0EF880AEFB5
:1002100001F0EF98000004EC00F0EF86120EE95EAA
:10022000EFA610EF01F0120EE9263C06DCD73D6A7E
:1002300004EC00F01BEC00F00000EF9604EC00F082
:10024000EF8804EC00F004EC00F03D5200E0EF8693
:10025000120EE95EEFA62AEF01F03D6A04EC00F011
:10026000EFB83D8004EC00F004EC00F004EC00F08A
:1002700004EC00F004EC00F004EC00F004EC00F0FE
:1002800004EC00F01BEC00F0120EE926EF96EF985C
:100290003DC000F012003C6A080E3D6E15C0E9FF3B
:1002A0000F0EEA6E3D521CE004EC00F00000EF88F7
:1002B00004EC00F03C5200E0EF86120EE95EEFA67F
:1002C0005FEF01F0EFB8D880EFA8D8903C3604EC8F
:1002D00000F01BEC00F0120EE926EF963D06E2D787
:1002E000EF8804EC00F03B5202E01BEC00F03B50C6
:1002F000D8B47CEF01F0EF98000004EC00F0EF863A
:10030000120EE95EEFA682EF01F0120EE92604EC70
:1003100000F01BEC00F0EF9604EC00F01BEC00F09A
:10032000EF983CC000F0120015C0E9FF0F0EEA6E16
:100330001BEC00F0EF9804EC00F0EF86120EE95E83
:10034000EFA6A0EF01F0120EE92604EC00F004EC99
:1003500000F004EC00F004EC00F0EF8804EC00F096
:1003600012000FD0800E3B6E19D0C00E3B6E16D01F
:10037000940E3B6E13D0D40E3B6E10D0800E3B6EAD
:100380000DD03B50010AEEE03B50020AEEE03B503C
:10039000030AEEE03B50040AEEE0F0D73C04006EA6
:1003A0003B50002600C03BF0010E1A6E00C041F029
:1003B00023EC00F01A6A3DC041F023EC00F0010E7E
:1003C0001A6E12000FD0800E3B6E19D0C00E3B6E1D
:1003D00016D0940E3B6E13D0D40E3B6E10D0800E10
:1003E0003B6E0DD03B50010AEEE03B50020AEEE0BE
:1003F0003B50030AEEE03B50040AEEE0F0D73C0429
:10040000006E3B50002600C03BF0010E1A6E00C08B
:1004100041F023EC00F01A6A3F6A3F503D24E96E38
:10042000000E3E20EA6EEECF00F000520CE03F508E
:100430003D24E96E000E3E20EA6EEECF41F023EC43
:1004400000F03F2AEAD7010E1A6E12003BC0E9FF06
:100450003CC0EAFF120E3B24006E00C015F000C045
:10046000E9FFEF88EF86120EE95EEFA635EF02F0A6
:10047000120007EC00F007EC00F007EC00F03DC0C4
:1004800016F03EC017F03BC018F03CC019F03BC05E
:10049000E9FF3CC0EAFFEF903DC0E1FF3EC0E2FF54
:1004A000E66A110EE124006E00C0E1FFE76A120E59
:1004B000005CE16E120EE926EF92EF94EF90120EBF
:1004C000E95EEF94EF92EF90300E416E23EC00F076
:1004D000300E416E23EC00F0300E416E23EC00F044
:1004E000380E416E23EC00F0080E416E23EC00F054
:1004F000010E416E23EC00F0060E416E23EC00F07D
:100500000C0E416E23EC00F0010E1A6E1200D00E9C
:100510003D6E070E3E6E000E3F6E406E3BC000F01B
:100520003CC001F0000E026E036ED00E046E070E8A
:10053000056E000E066E000E076E52EC00F000C055
:100540003DF001C03EF002C03FF003C040F0000E9D
:10055000035C08E1000E025C05E1020E015C02E1B1
:10056000940E005C0001D8A012000001940E006EF1
:10057000020E016E000E026E036E3DC004F03EC01E
:1005800005F03FC006F040C007F00050045E015087
:10059000055A0250065A0350075A04C03DF005C0E0
:1005A0003EF006C03FF007C040F0050E006E04C0EC
:1005B0003DF005C03EF006C03FF007C040F00050DF
:1005C000000107E040323F323E323D32409EFF0F95
:1005D000F7D7000100013DC000F03EC001F03FC070
:1005E00002F040C003F0010E3D5E000E3E5A3F5A3D
:1005F000405A00500110021003100CE000000000EF
:1006000000000000000000000000000000000000EA
:100610000000DFD71200C26AC00EC212C18CC18EA8
:100620003BC000F00036009000360090003600908D
:100630000050C212C28080EC00F0C284C2B4FED767
:10064000080E026EC4CF00F0000E016E025005E0ED
:10065000003600900136FF0FFAD7C3500012000E8B
:100660000112C29012003DC0E1FF3EC0E2FF200E29
:10067000E66E010E3D24E16E000E3E20E26E200E7D
:10068000E66E020E3D24E16E000E3E20E26E200E6C
:10069000E66E030E3D24E16E000E3E20E26E200E5B
:1006A000E66E040E3D24E16E000E3E20E26E300E3A
:1006B000E66E050E3D24E16E000E3E20E26EE66A17
:1006C000040E3F6E000E006E3C50005C02E13B5099
:1006D000000828E23F503D24E16E000E3E20E26E0D
:1006E0000A0E046E000E056E3BC000F03CC001F027
:1006F00086EC00F008C000F009C001F0300E0026C2
:1007000000C0E6FF0A0E046E000E056E3BC000F04E
:100710003CC001F086EC00F000C03BF001C03CF0B2
:100720003F06D0D712009494CA840C0EBD1212005A
:10073000CB50010F006E016A000E01223BC004F095
:10074000000E056EA4EC00F0060E026E00C004F070
:1007500001C005F00250000105E005320432059E9B
:10076000FF0FF9D704C000F000360090003600906B
:100770000036009000360090300E0014036E04C066
:1007800000F005C001F001320032019E013200325A
:10079000019E00C0BEFF0F0EBD160350BD12120019
:1007A000BE6ABD98BD9A1200FF0E836EFF0E956E55
:1007B000936AFF0E816E1F6A8190030E0B6EFF0E0F
:1007C0000A6E0B2E01D003D00A2EFED7FAD7960E52
:1007D0000A6E0A2EFED783CF1EF0010E1E14016E84
:1007E0000150000A03E13C0E1F6E1AD0016A1EB2CE
:1007F000012A0150000A03E1370E1F6E11D0016A71
:100800001EB4012A0150000A03E1340E1F6E08D005
:10081000016A1EB6012A0150000A02E1310E1F6E64
:1008200081808192030E0B6EFF0E0A6E0B2E01D09B
:1008300003D00A2EFED7FAD7960E0A6E0A2EFED7DE
:1008400083CF1EF0010E1E14016E0150000A03E159
:10085000300E1F6E1AD0016A1EB2012A0150000A22
:1008600003E1380E1F6E11D0016A1EB4012A015037
:10087000000A03E1350E1F6E08D0016A1EB6012A78
:100880000150000A02E1320E1F6E81828194030E34
:100890000B6EFF0E0A6E0B2E01D003D00A2EFED770
:1008A000FAD7960E0A6E0A2EFED783CF1EF0010EDF
:1008B0001E14016E0150000A03E13E0E1F6E1AD095
:1008C000016A1EB2012A0150000A03E1390E1F6EAF
:1008D00011D0016A1EB4012A0150000A03E1360E4C
:1008E0001F6E08D0016A1EB6012A0150000A02E1FB
:1008F000330E1F6E81841F50000AD8B45DD71FC00D
:1009000000F012003A0E1E6E1F6A3A0E206E216A27
:100910002F0E226E236A2F0E246E256A820E3B6EE6
:100920000F0E3C6E26EC02F0D8EC00F0D00E3B6EC1
:10093000EBEC00F03B6AEBEC00F0D8EC00F0D10EF1
:100940003B6EEBEC00F03B6A4BEC01F000C034F086
:100950003B6A4BEC01F000C035F03B6A4BEC01F018
:1009600000C036F03B6A4BEC01F000C037F03B6A48
:100970004BEC01F000C038F03B6A4BEC01F000C0DA
:1009800039F03B6A4BEC01F000C03AF094EC01F016
:10099000700E3414286E2832289E2832289E283261
:1009A000289E2832289E300E28260F0E3414296ED9
:1009B000300E2926700E3514266E2632269E2632DB
:1009C000269E2632269E2632269E300E26260F0E84
:1009D0003514276E300E2726700E36142A6E2A32F2
:1009E0002A9E2A322A9E2A322A9E2A322A9E300E95
:1009F0002A260F0E36142B6E300E2B26700E37144F
:100A00002C6E2C322C9E2C322C9E2C322C9E2C3276
:100A10002C9E300E2C26300E38142E6E2E322E9E2A
:100A20002E322E9E2E322E9E2E322E9E300E2E26B0
:100A30000F0E38142F6E300E2F26306A39B8302A38
:100A4000300E30260F0E3914316E300E3126F00E76
:100A50003A14326E3232329E3232329E3232329E0C
:100A60003232329E300E32260F0E3A14336E300E72
:100A70003326840E3B6E0F0E3C6E830E3D6E0F0EC2
:100A80003E6E39EC02F00C0E416E23EC00F0010ECC
:100A9000416E23EC00F0010E3B6E010E3C6E2AC04D
:100AA0003DF0B1EC01F0010E3B6E020E3C6E2BC02E
:100AB0003DF0B1EC01F0010E3B6E030E3C6E1E0EDC
:100AC0003D6E000E3E6EE2EC01F0010E3B6E040E38
:100AD0003C6E26C03DF0B1EC01F0010E3B6E050E00
:100AE0003C6E27C03DF0B1EC01F0010E3B6E060EEE
:100AF0003C6E200E3D6E000E3E6EE2EC01F0010EEB
:100B00003B6E070E3C6E28C03DF0B1EC01F0010ECB
:100B10003B6E080E3C6E29C03DF0B1EC01F0020EB8
:100B20003B6E010E3C6E2EC03DF0B1EC01F0020EAA
:100B30003B6E020E3C6E2FC03DF0B1EC01F0020E98
:100B40003B6E030E3C6E220E3D6E000E3E6EE2ECDE
:100B500001F0020E3B6E040E3C6E30C03DF0B1EC75
:100B600001F0020E3B6E050E3C6E31C03DF0B1EC63
:100B700001F0020E3B6E060E3C6E240E3D6E000E22
:100B80003E6EE2EC01F0020E3B6E070E3C6E32C090
:100B90003DF0B1EC01F0020E3B6E080E3C6E33C02E
:100BA0003DF0B1EC01F012000F0E936E816A819856
:100BB000818A819C818E1EC03BF01FC03CF087EC77
:100BC00002F08188819A819C818E1EC03BF01FC0FB
:100BD0003CF087EC02F08188819A818C819E1EC056
:100BE0003BF01FC03CF087EC02F08198818A818C39
:100BF000819E1EC03BF01FC03CF087EC02F0D7D7AF
:100C00001200410E1E6E440E1F6E430E206E200E0B
:100C1000216E560E226E610E236E6C0E246E750EC2
:100C2000256E650E266E3A0E276E286A2F0E296EE7
:100C3000320E2A6E350E2B6E350E2C6E2D6A300E4E
:100C4000326E300E336E300E346E300E356E366AC4
:100C5000376A010EC26E010EC16E840E3B6E0F0E1E
:100C60003C6E830E3D6E0F0E3E6E39EC02F00C0EA4
:100C7000416E23EC00F0010E416E23EC00F0010EFA
:100C80003B6E010E3C6E1E0E3D6E000E3E6EE2ECA3
:100C900001F03B6A0BEC03F0020E046E045005E019
:100CA00001320032019EFF0FFAD700C030F001C0C0
:100CB00031F000C03BF001C03CF0320E3D6E000E42
:100CC0003E6E33EC03F0020E3B6E040E3C6E320EB1
:100CD0003D6E000E3E6EE2EC01F0340E0B6EFF0E28
:100CE0000A6E0B2E01D003D00A2EFED7FAD7CF0EF4
:100CF0000A6E0A2EFED7000030C02EF031C02FF051
:100D0000FC0E82129494CA80CA82F90ECB6ED0EC8B
:100D100003F093EC03F02EC03BF098EC03F0040ECC
:100D20000C6EFF0E0B6EFF0E0A6E0C2E01D007D05C
:100D30000B2E01D003D00A2EFED7FAD7F6D7100E0D
:100D40000B6EFF0E0A6E0B2E01D003D00A2EFED7BB
:100D5000FAD7260E0A6E0A2EFED72EC03BF02FC001
:100D60003CF0320E3D6E000E3E6E33EC03F0010E91
:100D70003B6E080E3C6E320E3D6E000E3E6EE2EC97
:100D800001F0010E3B6E0D0E3C6E290E3D6E000E05
:100D90003E6EE2EC01F07DD71200070E1C6E000ED5
:100DA0001D6ED4EC03F000C01BF0956AFB0E926E32
:100DB0000050310A03E182EC04F00FD01B50320ADC
:100DC00007E11CC01EF01DC01FF0D4EC05F005D0DB
:100DD0001B50330A02E101EC06F0FFD7FFFFFFFFD3
:020000040030CA
:0E000000FFFAFFFEFFFFFBFFFFFFFFFFFFFF0A
:00000001FF
